:020000040800F2
:10000000E8C800204501000871690008F11F0008D8
:100010006D690008E10C000883A2000800000000E0
:10002000000000000000000000000000A58900089A
:100030004D13000800000000696D0008B58C000831
:100040005F0100085F0100085F0100085F01000810
:100050005F0100085F0100085F0100085F01000800
:100060005F0100085F0100085F0100085F010008F0
:100070005F0100085F0100085F0100085F010008E0
:100080005F0100085F0100085F0100085F010008D0
:100090005F0100085F0100085F0100085F010008C0
:1000A0005F0100085F0100085F0100085F010008B0
:1000B0005F0100085F010008198D00085F0100085A
:1000C0005F0100085F0100085F0100085F01000890
:1000D0005F010008FD9E00085F010008859F000881
:1000E0005F0100085F0100085F0100085F01000870
:1000F0005F0100085F0100085F0100085F01000860
:100100005F010008417000085F0100085F010008FE
:100110005F0100085F0100085F010008518D0008C1
:100120005F0100085F0100085F0100085F0100082F
:10013000DFF80CD000F01CFD00480047A1CB000800
:10014000E8C800200648804706480047FEE7FEE76B
:10015000FEE7FEE7FEE7FEE7FEE7FEE7FEE7FEE777
:10016000B98C0008310100082DE9F0410024061B7C
:10017000254671F1000605DA01240027D0EB0700BF
:1001800067EB0101161E73F1000605DA0027D2EBBA
:100190000702012567EB030300F01CFB86460E46B1
:1001A00017469C46AC4204D00025D0EB050E65EB0B
:1001B000010624B10020D2EB000760EB030C70466F
:1001C00031463A466346BDE8F08140EA01039B07A9
:1001D00003D009E008C9121F08C0042AFAD203E0BC
:1001E00011F8013B00F8013B521EF9D27047421E44
:1001F00012F8013F002BFBD111F8013B02F8013B43
:10020000002BF9D1704730B505462A460B4612F847
:10021000010B13F8014B08B1A042F8D01CB1002823
:1002200002D06D1CF1E7284630BD421C10F8011BBE
:100230000029FBD1801A704710B5002200E0521C43
:10024000835C8C5CA34201D1002BF8D1D8B2E1B21F
:10025000401A10BD034611F8012B00F8012B002AAB
:10026000F9D118467047F0B480EA0102D40F420079
:10027000B2EB410F02D20246084611464A0042D074
:10028000C30DDDB2C1F3C752AD1A202D35DAC1F36B
:10029000160141F4000204B15242C5F1200602FAEF
:1002A00006F12A411044B3EBD05F23D0C4B1012D35
:1002B000A0EBC35009DCF0BC4FF0004202EAC3528D
:1002C000DBB200F5000000F0F0BA400000F18070F1
:1002D00000EBC350A0F1807040EAD170490009E002
:1002E000490841EAC071A0EBC35000F50000400886
:1002F00000EBC350F0BC00F0CFBA6142012202EB28
:100300004101001BF6E7F0BC704781F00041AAE70D
:1003100080F00040A7E780EA010210B502F0004338
:10032000400022D04A001FD0010E01EB1261C0F341
:100330005600C2F3560240F4000042F40002A0FB53
:10034000022000047F39140400D0401C50EA1240FF
:1003500001D44000491EC2B20C0604EBD010401C70
:100360004008802A02D003E0002010BD20F00100E8
:10037000002900DA0020184310BD30B480EA0102E1
:1003800002F0004530F0004221F0004013D090B15F
:10039000C30DD40DC2F31601C0F31600E41A41F4E4
:1003A000000140F400027D34914201D3641C00E05E
:1003B0004900002C02DA30BC002070474FF40000E6
:1003C0000023914201D3891A034340084FEA4101B7
:1003D000F7D151B1914202D14FF0004105E002D274
:1003E0004FF0010101E06FF0010103EBC45028441C
:1003F00030BC00F051BA2DE9FE4F804681EA03007F
:10040000C00F0C46009021F0004123F00045B8EBEE
:100410000200A94105D24046214690461C460B46A3
:10042000024623F00040104347D0270DC7F30A00CF
:10043000C3F30A510290401A019040286BDAC3F3CB
:10044000130040F4801B0098924620B10023D2EBA9
:10045000030A63EB0B0B01985946C0F1400250466A
:1004600000F0E9F906460D4650465946019A00F05B
:1004700001FA10EB08006141002487EA115284EA76
:10048000E7731A4340D0009A62B3019A012A4FEAF7
:10049000075215DC001B61EB02014FF0004202EA3B
:1004A0000752CDE90042001C41F5801132462B462F
:1004B00000F038FA03B0BDE8F08F40462146F9E776
:1004C000001B61EB0201001C41F5801300185B4129
:1004D0002018A2F5001747EB030140EAD570B619C2
:1004E0006D4111E06D084FEA360645EAC0754FEAE6
:1004F0000752001B61EB0201001C41F58011490805
:100500004FEA30000019514132462B4603B0BDE896
:10051000F04F00F0F8B90098012240000023D0EB22
:10052000020263EBE073009821464FEAE074B8EBF7
:10053000000061EB0401E9E783F000435BE781F031
:10054000004158E72DE9FE4F81EA030404F000441E
:1005500021F0004100944FF0000B23F0004350EADB
:1005600001045ED052EA03045BD0C3F30A54C1F322
:100570000A552C44A4F2F3340194A0FB0254C1F3B5
:10058000130141F48011C3F3130343F4801301FBFF
:10059000024400FB034E840A970A44EA815447EA66
:1005A0008357A4FB076802958D0A05FB07854FEA70
:1005B000932C04FB0C542705029D4FEA065847EA8A
:1005C0001637B5EB08056EEB070C870E920E47EA5F
:1005D000811742EA8312A7FB0201B6EB0B0164EB21
:1005E00000042B0D43EA0C335E1844EB1C50DA4632
:1005F0005146E7FB0201C5F313044FEA0B3343EA0C
:1006000014534FEA0432019C43EA0603A4F10C049C
:100610000294009CCDE900B400F084F903B0BDE879
:10062000F08F00200146F9E7C10F80EAE07008442E
:10063000CA079623002100F038B9962300221146FC
:1006400000F033B90EB5C10F80EAE0700844CA0764
:10065000002140F233438DE80E000A460B4600F0BD
:1006600061F903B000BD0EB540F2334102910021A3
:10067000CDE900110A460B4600F054F903B000BD65
:1006800000F0004220F00040C10DC0F3160040F41D
:1006900000007F2901DA00207047962903DCC1F1B0
:1006A0009601C84001E096398840002AF4D04042C3
:1006B000704720F00040C10DC0F3160040F4000068
:1006C0007F2901DA00207047962903DCC1F19601E9
:1006D000C8407047963988407047C1F30A5210B538
:1006E000C1F3130140F2FF3341F480119A4201DA61
:1006F000002010BD40F233439A42A2F2334203DCA1
:10070000524200F0A7F810BD904010BD00F000422A
:1007100030F000400AD0C10D01F56071C0F3160041
:1007200042EA0151C20840071143704700200146C8
:100730007047000030B5041E71F1000404DB4FF077
:100740000044404264EB0101141E73F1000405DB18
:100750001C464FF00043524263EB04038B4208BF38
:10076000824230BD30B5041E71F1000404DB4FF04D
:100770000044404264EB0101141E73F1000405DBE8
:100780001C464FF00043524263EB0403994208BFFA
:10079000904230BD002801DBC0F10040002901DBA0
:1007A000C1F100418142704730B50B46014600203F
:1007B0002022012409E021FA02F59D4205D303FA23
:1007C00002F5491B04FA02F52844151EA2F10102A4
:1007D000F1DC30BD2DE9F05F0546002092469B46D6
:1007E00088460646814640241BE028464146474647
:1007F000224600F02FF853465A46C01A914110D3B2
:1008000011461846224600F016F82D1A67EB01082B
:100810004F4622460120002100F00DF817EB000999
:100820004E41201EA4F10104DFDC484631462A4631
:100830004346BDE8F09F202A04DB203A00FA02F18B
:10084000002070479140C2F1200320FA03F31943BE
:1008500090407047202A04DB203A21FA02F0002160
:10086000704721FA02F3D040C2F1200291400843C0
:1008700019467047202A06DBCB17203A41FA02F0CE
:1008800043EAE07306E041FA02F3D040C2F12002ED
:1008900091400843194670470029A8BF7047401C83
:1008A000490008BF20F00100704710B4B0FA80FC86
:1008B00000FA0CF050EA010404BF10BC704749B1C3
:1008C000CCF1200421FA04F411FA0CF118BF012133
:1008D00021430843A3EB0C01CB1D4FEA00614FEA13
:1008E000102042BF002010BC704700EBC3501044E2
:1008F0000029A4BF10BC7047401C490008BF20F06D
:10090000010010BC704710B5141E73F1000408DA22
:10091000401C41F1000192185B411A4301D120F0C3
:10092000010010BD2DE9F04D92469B4611B1B1FA80
:1009300081F202E0B0FA80F220329046FFF77BFFAE
:1009400004460F4640EA0A0041EA0B0153465A4664
:10095000084313D0114653EA010019D0C8F14002F0
:100960005046FFF777FF05460E4650465946424629
:10097000FFF761FF084305D0012004E02046394617
:10098000BDE8F08D0020054346EAE0762C4337436E
:100990000A986305E40AA0EB08000022FD0A44EA75
:1009A00047540A3002D500200146E9E70105101935
:1009B0006941DDE9084500196941BDE8F04DA2E74C
:1009C0002DE9F04D81EA030404F0004B21F00045CD
:1009D00014464FF0000A23F0004150EA050220D0EF
:1009E00054EA01021DD0C5F30A570246C5F31303AA
:1009F000C1F31300C1F30A5640F4801543F4801389
:100A0000A7EB0608101BD64608F2FD3873EB05006D
:100A100002D308F1010801E092185B41B8F1000F20
:100A200003DA00200146BDE8F08D00204FF480116C
:100A3000064684460EE0171B73EB050705D3121B11
:100A400063EB050306434CEA010C49084FEA30000A
:100A500092185B4150EA0107EDD152EA030012D02F
:100A600082EA040083EA0501084305D0101BAB416C
:100A700006D20122002306E000224FF0004302E0EC
:100A80006FF0010253101AEB06004CEB085110EB0B
:100A90000A0041EB0B01BDE8F04DFFF734BF2DE933
:100AA000F04D00231A461B1A8A4103DB0020014641
:100AB000BDE8F08DC1F30A52C1F3130141F4801572
:100AC0004FF0000BD10702D100186D41521E0027D4
:100AD000044640F2FF11384601EB620A3E4680466A
:100AE000024600204FF48011FFF7B4FEC219714195
:100AF000BB1846EB0100B4EB030C75EB000C04D300
:100B0000E41A65EB000517460E46241908F10100AA
:100B10006D4180463428E3DDF91946EB0600091BD8
:100B2000A84103D24FF0FF32134601E000221346E2
:100B30001BEB070046EB0A51BDE8F04DFFF7E3BEA3
:100B4000C1F30A52C1F3130140F2FF3341F48011A3
:100B50009A4202DA00200146704740F233439A423B
:100B6000A2F2334202DC5242FFF774BEFFF763BECB
:100B7000064C074D06E0E06840F0010394E80700EA
:100B800098471034AC42F6D3FFF7D6FA9C0A010816
:100B9000BC0A010870B58C1810F8015B15F007034A
:100BA00001D110F8013B2A1106D110F8012B03E006
:100BB00010F8016B01F8016B5B1EF9D12B0705D40E
:100BC0000023521E0DD401F8013BFAE710F8013B57
:100BD000CB1A921C03E013F8015B01F8015B521E73
:100BE000F9D5A142D8D3002070BD10B501F02AFA82
:100BF00010BD70B506460C46154608E03046721C1E
:100C000096B200F007F804F8010B681E85B2002DBB
:100C1000F4D170BD70B50446002601F0C7FA254630
:100C2000E11704EB11610912A02202EB4101C8B2E5
:100C300001F082FA01F006FBE11704EB11610912E1
:100C4000A4EB0121C8B201F077FA01F0FBFA01F040
:100C5000ADFAA12001F070FA01F0F4FA002001F0E1
:100C600033FA064601F0C8FA304670BD70B5054645
:100C70000C46164606E02178284600F009F8681C64
:100C800085B2641C301EA6F101018EB2F3D170BD95
:100C900070B504460E4601F089FA2546E11704EBCB
:100CA00011610912A02202EB4101C8B201F044FA1D
:100CB00001F0C8FAE11704EB11610912A4EB01215C
:100CC000C8B201F039FA01F0BDFA304601F034FA49
:100CD00001F0B8FA01F090FA0A200AF04DFD70BD5B
:100CE00000BFFEE710B505200AF06CFD10BD000046
:100CF00010B500200F4908600F48006820F0F00090
:100D00000D4908600846006840F030000860FFF7B1
:100D1000E9FF00200949C1F8A401FFF7E3FF012022
:100D200004490860FFF7DEFF00200549C1F884018F
:100D300010BD000084812142041C01400080234238
:100D40000080214208B50121882006F03FF80220EA
:100D5000ADF8000010208DF8030003208DF802008C
:100D600069460A4800F00EFE0221084800F0A0FE85
:100D70004FF40070ADF800006946054800F002FE2F
:100D80004FF40071024800F093FE08BD000C0140D2
:100D9000001C014010B500200F4908600F48006892
:100DA00020F0F0000D4908600846006840F030006F
:100DB0000860FFF797FF01200949C1F8A401FFF778
:100DC00091FF012004490860FFF78CFF00200549CE
:100DD000C1F8840110BD000084812142041C01403F
:100DE000008023420080214270B505460024164849
:100DF000006820F0F000144908600846006840F0E0
:100E0000800008601E200AF0DDFC002611E00020B2
:100E10000E490860FFF766FF01200D49C1F8840103
:100E20006006040E0B48006808B1601CC4B2701C58
:100E3000C6B2082EEBDB15B9FFF7ACFF01E0FFF7F8
:100E400057FF204670BD0000041C014084812142F0
:100E5000008021422481234270B504461348006873
:100E600020F0F000114908600846006840F03000AA
:100E7000086000200E490860FFF734FF002511E0EC
:100E8000E0090C4908606006040E01200A49C1F817
:100E90008401FFF727FF002005490860FFF722FFC4
:100EA000681CC5B2082DEBDB70BD0000041C0140BE
:100EB00084812142A48123420080214210B50F4841
:100EC000006820F0F0000D4908600846006840F016
:100ED0003000086001200A4908600A49C1F884010D
:100EE0001E200AF06FFC002005490860FFF7FAFE9B
:100EF00000200449C1F8840110BD0000041C014019
:100F0000A48123420080214210B50D48006820F0E2
:100F1000F0000B4908600846006840F030000860A7
:100F20000120084908601E200AF04CFC00200649F8
:100F3000C1F8A401FFF7D6FE01200449086010BDE6
:100F4000041C01408481214200802342A481234269
:100F500010B500241348006820F0F0001149086023
:100F60000846006840F08000086001200E490860D3
:100F70000E49C1F88401FFF7B5FE09E0601CC4B258
:100F8000FA2C03DDFFF7C0FF012010BDFFF7AAFE1A
:100F90000548803800680028F0D10549086000BF86
:100FA000F3E70000041C0140A48123420080214299
:100FB0008481214270B500254FF4803404E0802004
:100FC00006F02AF800B103E0201EA4F10104F6D1D6
:100FD00000BF0CB9032070BD40F2FF5005F0D6FFF2
:100FE0002846F8E770B5044605E01548456B05F05E
:100FF000450000B100E0F8E700BF042006F00CF85F
:1010000020B1042005F0C2FF032070BD012006F0CE
:1010100003F820B1012005F0B9FF0120F5E70848E9
:101020000069A04201D01020EFE740F2FF500449D0
:1010300088630846406908210840C0B2E5E700001F
:101040000080014070B500264FF4803505E011485E
:10105000446B04F0450000B103E0281EA5F1010532
:10106000F5D100BF15B104F0040028B10326042017
:1010700005F08CFF304670BD012005F0CDFF18B1A2
:101080000126012005F082FF40F2FF5005F07EFFAF
:101090003046F0E70080014010B505E00B48446B96
:1010A00004F0450000B100E0F8E700BF042005F0BF
:1010B000B3FF20B1042005F069FF032010BD40F20A
:1010C000FF5005F063FF0020F8E7000000800140BA
:1010D0002DE9F04105460E464FF0000805E01F4897
:1010E000476B07F0450000B100E0F8E700BF0420BF
:1010F00005F092FF28B1042005F048FF0320BDE869
:10110000F081012005F088FF20B1012005F03EFFAD
:101110000120F4E711480069A84201D01020EEE751
:1011200040F2FF5005F032FF0C48446904F460407F
:1011300018B9200C30804046E1E704F4005008B1B3
:101140001320DCE704F4804008B11020D7E704F452
:10115000004008B10F20D2E74046D0E700800140B0
:1011600070B500264FF4803505E00F48446B04F05D
:10117000450000B103E0281EA5F10105F5D100BF2F
:1011800015B104F0040028B10326042005F0FEFE8A
:10119000304670BD04F0400018B10026402005F034
:1011A000F5FE3046F5E700000080014021B10268FD
:1011B00042F00102026004E002684FF6FE731A403A
:1011C0000260704701684FF6FE7211400160002115
:1011D000016041608160C1604B49884208D14A4941
:1011E0000839496841F00F01474A083A51608AE0DE
:1011F00045491431884208D143490839496841F0CA
:10120000F001414A083A51607DE03F492831884267
:1012100008D13D490839496841F470613A4A083AB1
:10122000516070E038493C31884208D1364908396C
:10123000496841F47041344A083A516063E03249E8
:101240005031884208D130490839496841F4702149
:101250002D4A083A516056E02B496431884208D142
:1012600029490839496841F47001274A083A516010
:1012700049E025497831884208D12349083949682D
:1012800041F07061204A083A51603CE01F498842B1
:1012900006D1011F096841F00F01021F116032E001
:1012A0001A491431884208D11849091F096841F0C8
:1012B000F001164A121F116025E0144928318842B6
:1012C00008D11249091F096841F470610F4A121FC1
:1012D000116018E00D493C31884208D10B49091FC3
:1012E000096841F47041094A121F11600BE0074977
:1012F0005031884207D10549091F096841F470211E
:10130000024A121F116070470800024008040240A0
:1013100010B50022026847F6F0739A430C6A8B6896
:1013200023430C6923434C6923438C692343CC69D1
:1013300023434C6A23438C6A23431A430260CB68DD
:1013400043600B6883604B68C36010BD704700004A
:1013500008B50121402005F039FD1E20ADF8000040
:1013600010208DF8030003208DF8020069460A481A
:1013700000F008FB0221084800F098FB0421064811
:1013800000F094FB0821044800F090FB1021024873
:1013900000F08CFB08BD00000018014051B1820034
:1013A000A2F1C042126842F001038200A2F1C042E1
:1013B000136009E08200A2F1C0421268034B1A4098
:1013C0008300A3F1C0431A6070470000FEFF0F00C6
:1013D000D0E901121143C268114302691143426905
:1013E000114382691143C2691143026A1143426A7F
:1013F0001143826A1143C26A1143026B11430268AE
:101400009200A2F1C0421160816808290BD10168E5
:101410008900A1F1C041096841F0400201688900DA
:10142000A1F1C0410A60416B0968426B526841EA10
:101430000211426B926841EA0221426B928941EAB1
:101440000241426B128A41EA0251426B127D41EA2B
:101450000261426B926911430268521C9200A2F130
:10146000C0421160C16AB1F5804F1BD1816B096820
:10147000826B526841EA0211826B926841EA022152
:10148000826B128A41EA0251826B127D41EA02614B
:10149000826B9269114302689200A2F1C042C2F8C5
:1014A000041107E06FF0704201688900A1F1C041AA
:1014B000C1F80421704700001CB50121802005F00F
:1014C00085FC4FF40060ADF8000010208DF803009B
:1014D00003208DF8020069462D4800F053FA0221DE
:1014E0002B4800F0E5FA4FF48060ADF8000048208A
:1014F0008DF803006946264800F044FA4FF48061F5
:10150000234800F0D5FAFFF71DFC002021490860B0
:1015100014200AF031F901201F49C1F8AC01322032
:101520000AF02AF900208DF80400012201A900F038
:1015300035F9012201A9A42000F030F916208DF818
:101540000400012201A9802000F028F90C208DF868
:101550000400012201A9882000F020F9022201A93B
:10156000A12000F021F89DF8040030280ED19DF84C
:10157000050003280AD19DF805009DF8042000EB22
:10158000022106A008F0FEFF00201CBD0120FCE7A0
:10159000001C0140AC812342008023424354502070
:1015A00049443A25780D0A002DE9F04106460F46D8
:1015B0001546FFF783FC7020FFF74EFCFFF7C8FCD1
:1015C000F0B2FFF749FCFFF7C3FCFFF777FC71208F
:1015D000FFF742FCFFF7BCFC00240BE0691EA142B0
:1015E00001D0012100E000210846FFF7FDFB38553E
:1015F000601CC4B2AC42F1DBFFF786FCBDE8F081B1
:1016000071B581B00024002661480078401C604913
:101610000870084600780A2190FBF1F201FB1200E5
:1016200018B15B4800780A2867DA012201A9022074
:10163000FFF7BAFF9DF8040000F00F0000287ED0ED
:101640009DF8040000F00F00062878DA9DF80400E9
:1016500000F00F01FF208840C5B2E843C0B240F05F
:10166000C0004C4981F8200000245AE0494890F815
:1016700020000121A1400840F0B3474931F814008F
:1016800004226946FFF790FF424890F8300000F0CE
:101690000100C0B19DF801009DF8001001F00F019C
:1016A00000EB01203B49163121F814009DF803009E
:1016B0009DF8021001F00F0100EB012135480C30BC
:1016C00020F814101DE09DF801009DF8001001F0B5
:1016D0000F0100EB0120C0F5F07081B22D480C30F5
:1016E00020F814109DF803009DF8021001F00F017E
:1016F00000EB0121274801E011E020E0163020F83E
:1017000014109DF8000000F0F000802807D00021A0
:101710002048163020F814100A3820F81410601CE5
:10172000C4B2052CA2DB01261A48808920B91948C9
:10173000C08A08B9002001900020154908709DF862
:10174000040000F01F00D0B9124890F8200000F00B
:10175000800040B10F4890F8200020F080000D4933
:1017600081F820000BE04FF6FF700A498881C8829B
:10177000084690F8200000F0E00081F820000448BE
:101780000078F02802DD0A200149087030467CBD4F
:1017900034000020380000200A0401082DE9F0413F
:1017A00005460E4617464FF00008FFF787FB7020EE
:1017B000FFF752FBFFF7CCFBE8B2FFF74DFBFFF75B
:1017C000C7FB00240BE0305DFFF746FBFFF7C0FBD3
:1017D0008046B8F1000F00D003E0601CC4B2BC42E8
:1017E000F1DB00BFFFF790FB4046BDE8F081000051
:1017F0002DE9FC4107460D460026002400200090FC
:10180000019008205B4908601020486040208860F3
:101810000020C8604FF480600861084605F032FC83
:101820001020FFF7DFFB044614B12046BDE8FC8121
:101830005148008800044F49086037204860402024
:1018400088600020C8604FF480600861084605F099
:1018500019FC3720FFF7C6FB04460CB12046E5E72C
:101860004FF0FF304549086008204860302088600C
:101870000220C8600020086101204861084605F088
:10188000A1FB00203B49086033204860402088606D
:101890000020C8604FF480600861084605F0F2FB44
:1018A0003320FFF79FFB04460CB12046BEE70CE057
:1018B0004FF4001005F0B0FB38B105F0DDFB4DF83A
:1018C0002600761C022E00D306E02D48406B40F225
:1018D0002A6108400028EBD000BF082005F09CFBDF
:1018E00020B1082005F052FB04209FE7022005F0FC
:1018F00093FB20B1022005F049FB022096E720204F
:1019000005F08AFB20B1202005F040FB06208DE782
:101910004FF4007005F080FB28B14FF4007005F023
:1019200035FB072082E740F2FF5005F02FFB0098BF
:101930000006009901F47F4140EA0120009901F47A
:101940007F0140EA1120009940EA11606860019827
:101950000006019901F47F4140EA0120019901F458
:101960007F0140EA1120019940EA11602860204679
:101970005CE70000F8020020280000200C03002093
:10198000008001402DE9F04102460025002600209C
:1019900000230024002791F803C00CF00F0591F8F4
:1019A00003C00CF0100CBCF1000F03D091F802C082
:1019B0004CEA050591F800C0BCF1000F31D0146865
:1019C00000202BE04FF0010C0CFA00F3B1F800C03E
:1019D0000CEA03069E4220D183004FF00F0C0CFA54
:1019E00003F7BC4305FA03FC4CEA040491F803C076
:1019F000BCF1280F06D14FF0010C0CFA00FCC2F824
:101A000014C00AE091F803C0BCF1480F05D14FF0B3
:101A1000010C0CFA00FCC2F810C0401C0828D1D3FD
:101A20001460B1F800C0BCF1FF0F34DD5468002031
:101A30002EE000F1080C4FF0010808FA0CF3B1F8A1
:101A400000C00CEA03069E4221D183004FF00F0C28
:101A50000CFA03F7BC4305FA03FC4CEA040491F8C2
:101A600003C0BCF1280F05D100F1080C08FA0CF8EE
:101A7000C2F8148091F803C0BCF1480F07D100F1FF
:101A8000080C4FF0010808FA0CF8C2F81080401C4E
:101A90000828CED35460BDE8F08102460020936848
:101AA0000B400BB1012000E00020704741617047FE
:101AB000016170470EB50121802005F087F94FF4D0
:101AC0000060ADF8000010208DF8030003208DF8B1
:101AD000020069463A48FFF755FF02213848FFF7F0
:101AE000E7FF4FF48060ADF8000048208DF8030058
:101AF00069463348FFF746FF4FF480613048FFF7EF
:101B0000D7FFFFF71FF900202E4908600A2009F0CF
:101B100033FE01202C49C1F8AC010A2009F02CFE4B
:101B20004FF48060ADF8000028208DF8030069466E
:101B30002348FFF727FF4FF480612148FFF7B6FFE6
:101B4000642009F019FE042201A948F2401000F0B7
:101B500051F800208DF8080001A91CA008F012FD22
:101B60001DA101A8FEF768FB40BB02208DF8040010
:101B7000012201A948F2400000F09CF9012201A9CC
:101B800048F2470000F036F89DF80400602807DAB4
:101B90009DF8041012A008F0F5FC012000F05CF99B
:101BA0000A2009F0E9FD00208DF80400012201A9B6
:101BB00048F2400000F07EF900200EBD0120FCE755
:101BC000001C0140AC81234200802342435450203A
:101BD00049443A25730D0A003931343700000000BA
:101BE00044656661756C74205665723A25640D0A09
:101BF000000000002DE9F04105460F461646FFF7AC
:101C00005DF92820FFF728F9FFF7A2F92812FFF75E
:101C100023F9FFF79DF9E8B2FFF71EF9FFF798F9EE
:101C2000FFF74CF92920FFF717F9FFF791F9002486
:101C30000BE0711EA14201D0012100E00021084605
:101C4000FFF7D2F83855601CC4B2B442F1DBFFF79D
:101C50005BF9BDE8F081000071B583B00024002677
:101C600079480078401C78490870084600780A21B5
:101C700090FBF1F201FB120018B1734800780A28BA
:101C80007EDA012203A948F24E10FFF7B3FF9DF858
:101C90000C0000F0800068B19DF80C0000F00F000F
:101CA000062807DA00200190012201A948F24E100F
:101CB00000F000F99DF80C0000F00F0000285FD044
:101CC0009DF80C0000F00F000628D9DA9DF80C00F2
:101CD00000F00F01FF208840C0B201905B4890F8EF
:101CE00020509DF80400C043C0B240F0C0005749E6
:101CF00081F82000084681898182C18AC18300243D
:101D000046E0524890F820000121A140084020B34D
:101D10004F4931F81400042202A9FFF76BFF4B482A
:101D200090F8300000F00100C0B19DF808009DF867
:101D3000091000EB012081B24448163020F814103D
:101D40009DF80A009DF80B1000EB0120C0F54870CB
:101D500081B23E480C3020F8141017E09DF80800BE
:101D60009DF8091000EB012081B238480C3020F8B2
:101D700014109DF80A009DF80B1000EB012000E004
:101D800036E081B23148163020F81410601CC4B21D
:101D9000052CB6DB01262D4880892E49098888420A
:101DA00005DC2A48C08A2B49498888421DDD9DF8F8
:101DB0000C0000F00F0001280ADD2448C0892349E7
:101DC00088810846008BC88200201F4908700FE0F8
:101DD0001E48808A1D4988810846C08BC8828020A1
:101DE0000390084680F8205002E000201649087051
:101DF0009DF80C0000F08F0080281AD1134890F84D
:101E0000200000F0800040B1104890F8200020F041
:101E100080000E4981F820000BE04FF6FF700B495F
:101E20008881C882084690F8200000F0E00081F820
:101E3000200005480078F02802DD0A2002490870D9
:101E4000304604B070BD000035000020380000208E
:101E5000CC040108CC02002038B50546002400203F
:101E60008DF800008DF8015000BF09E09DF80000DA
:101E70000F49095D0844C0B28DF80000601CC4B26F
:101E8000B82CF3D39DF80000C043401CC0B28DF8BD
:101E90000000B822064948F2470000F00BF8022281
:101EA000694648F2FF0000F005F8002038BD000048
:101EB000140401082DE9F04104460E4617464FF080
:101EC0000008FEF7FBFF2820FEF7C6FFFFF740F8EB
:101ED0002012FEF7C1FFFFF73BF8E0B2FEF7BCFFB0
:101EE000FFF736F800250BE0705DFEF7B5FFFFF752
:101EF0002FF88046B8F1000F00D003E0681CC5B28F
:101F0000BD42F1DB00BFFEF7FFFF4046BDE8F081B8
:101F10002DE9F05F82460F4614462046E21704EB97
:101F20005272D2102146E31704EB5373DB10A4EB7B
:101F3000C3030BB1012300E000231A44624302F003
:101F4000FF099AF800600AF1010082460578812EA7
:101F500005DB402D03DBFF2D01D0FF2E0DD14FF00F
:101F6000000B06E0002007F8010B0BF1010000F068
:101F7000FF0BCB45F6DBBDE8F09F7F2D03DAA5F123
:101F80004000C5B202E0A5F14100C5B2A6F1810052
:101F9000C6B2BE2000FB065000FB09F80C2C04D092
:101FA000102C0CD0182C1ED113E01048D0F80900CA
:101FB00000EB08014A46384608F0BEF913E00B482A
:101FC000D0F8110000EB08014A46384608F0B4F991
:101FD00009E00648D0F8190000EB08014A463846E7
:101FE00008F0AAF900BF00BF00BFC4E7C4C40020C6
:101FF00000BFFEE710B500200F4908600F480068D9
:1020000020F070400D4908600846006840F04050DC
:10201000086000200A49C1F89C01022009F0D2FBA7
:10202000012005490860022009F0CCFB002004498A
:10203000C1F8980110BD000098812142000C0140B8
:102040000080214208B50121082004F0BFFEC02015
:10205000ADF8000010208DF8030003208DF8020079
:1020600069460448FFF78EFCC0210248FFF720FDB7
:1020700008BD0000000C014010B500200F490860A9
:102080000F48006820F070400D490860084600685D
:1020900040F04050086001200A49C1F89C0102202C
:1020A00009F090FB012005490860022009F08AFB35
:1020B00000200449C1F8980110BD00009881214218
:1020C000000C01400080214270B5054600241748ED
:1020D000006820F07040154908600846006840F02C
:1020E00000400860002616E0002011490860022028
:1020F00009F068FB01200F49C1F898016006040E41
:102100000B487C38006808B1601CC4B2012009F09B
:1021100059FB701CC6B2082EE6DB15B9FFF7ACFF01
:1021200001E0FFF767FF204670BD0000000C014092
:10213000988121420080214270B504461848006809
:1021400020F07040164908600846006840F0405092
:10215000086000201349086000251EE0E00920B156
:1021600001201049091D086003E000200D49091DE8
:1021700008606006040E022009F024FB01200949D2
:102180000860022009F01EFB00200749C1F89801F1
:10219000022009F017FB681CC5B2082DDEDB70BDFC
:1021A000000C0140988121420080214210B50F4867
:1021B000006820F070400D4908600846006840F053
:1021C0004050086001200A4908600A49C1F8980196
:1021D000042009F0F7FA002005490860042009F0FE
:1021E000F1FA00200349C1F8980110BD000C01402C
:1021F0009C8121420080214210B50F48006820F0E8
:1022000070400D4908600846006840F04050086082
:1022100000200A4908600A49C1F89C01042009F01D
:10222000D1FA0120054908600549C1F89C01042044
:1022300009F0C8FA10BD0000000C0140988121424D
:102240000080214210B500241448006820F070403E
:10225000124908600846006840F00040086001200C
:102260000F49086009F0AEFA01200E49C1F8980143
:1022700009F0A8FA07E0601CC4B2FA2C03DDFFF7EE
:10228000BBFF012010BD0648803800680028F2D14D
:102290000349091F086000BFF4E70000000C01407B
:1022A0009C8121420080214272B6704762B670471D
:1022B0001CB50446002001900090214800880004CD
:1022C000204908600D204860402088600020C860D8
:1022D0004FF480600861084604F0D4FE1A48406B51
:1022E000009002E01848406B0090009800F0450014
:1022F0000028F7D0012004F08FFE20B1012004F067
:1023000045FE01201CBD042004F086FE20B10420FF
:1023100004F03CFE0320F5E70B4800690D2801D0CE
:102320001020EFE740F2FF5004F030FE064840690D
:1023300001900198C0F3432020700020E2E70000E4
:1023400028000020F80200200080014008B501218B
:10235000442004F03BFD1C20ADF8000048208DF81F
:10236000030069460648FFF70DFB0120ADF80000A9
:1023700028208DF8030069460248FFF703FB08BDDB
:10238000001801400008014010B5044614B10120B6
:102390002C4908702B480078002837D010212A4893
:1023A000FFF77BFB78B108212748FFF776FB50B198
:1023B00004212548FFF771FB28B101212348FFF7CD
:1023C0006CFB012822D10A2009F0D6F900201D4912
:1023D000087010211C48FFF760FB08B9012010BDF0
:1023E00008211948FFF759FB08B90220F7E7042133
:1023F0001548FFF752FB08B90320F0E70121134805
:10240000FFF74BFB01281BD10420E8E710210E4801
:10241000FFF743FB012813D108210B48FFF73DFBD1
:1024200001280DD104210848FFF737FB012807D107
:1024300001210648FFF731FB10B90120014908705E
:102440000020CCE71E0000200018014000080140D9
:1024500070B504460026174805884088454315484E
:10246000808846F60401884216D1124880790128F6
:1024700012D100200F4988712A2048812B208881A1
:102480000021084604F048F801200A4988712B20F1
:1024900048812A20888103E00021084604F03CF8A6
:1024A00004F02CFA002602E003480480761CAE42B9
:1024B000FAD370BDCC0200200008006C10B50446B1
:1024C000002C66D16C498871F02008804FF4A07010
:1024D00048800846808849F2413188420BD06648DE
:1024E000808846F60401884205D06348808845F21A
:1024F000103188421AD12C205F4908812A20488156
:102500002B2088810846808846F60401884205D041
:102510005948808845F21031884206D14FF4A070A6
:10252000554908804FF4F0704880A1E052488088F7
:1025300045F21051884210D14FF430504E49088175
:102540004FF4285048814FF42C5088814FF4F0709C
:1025500008804FF4487048808AE04748808841F6F8
:10256000631188420DD12C20434908812B204881DA
:102570002A2088814FF4F07008804FF4487048801A
:1025800076E022203C490881202048812120888152
:102590006EE00120384988714FF4A0700880F02067
:1025A00048800846808849F24131884205D0324847
:1025B000808845F21031884207D12C202E490881AD
:1025C0002A2048812B2088813FE02B48808846F6CE
:1025D0000401884207D12C20274908812B204881FB
:1025E0002A20888131E02448808845F210518842B1
:1025F00010D14FF43050204908814FF428504881C1
:102600004FF42C5088814FF4487008804FF4F070DC
:1026100048801AE01848808841F6631188420DD13D
:102620002C20154908812A2048812B2088814FF4CD
:10263000487008804FF4F070488006E022200E4970
:10264000088121204881202088810B48808846F617
:102650000401884205D00848808845F2103188423C
:1026600006D14FF4F070044908804FF4A070488000
:10267000002003F0DBFD10BDCC0200202DE9FF4F50
:1026800084B081468A460020039002900698A0EB11
:1026900009050798A0EB0A06CDF80490CDF800A034
:1026A000002D01DD012705E00DB9002702E04FF004
:1026B000FF376D42002E02DD4FF0010806E016B92B
:1026C0004FF0000802E04FF0FF387642B54201DDDE
:1026D0002C4600E034464FF0000B21E0009A91B206
:1026E000019A90B200F022F80398284403900298CF
:1026F000304402900398A04205DD0398001B03902C
:102700000198384401900298A04205DD0298001B10
:1027100002900098404400900BF101001FFA80FBEA
:10272000601C8345DADD08B0BDE8F08F30B50446A3
:102730000D462946204603F0EFFE04F0DFF802487C
:1027400000880249088030BD200000200008006C8D
:102750002DE9F04306460F469046002445460320E7
:10276000A0EB48093CE07A1B91B2321990B2FFF716
:10277000DDFF3A1B91B2721990B2FFF7D7FF3A19F9
:1027800091B2721990B2FFF7D1FF7A1991B2321952
:1027900090B2FFF7CBFF7A1991B2321B90B2FFF7DC
:1027A000C5FF3A1991B2721B90B2FFF7BFFF7A1BB7
:1027B00091B2321B90B2FFF7B9FF3A1B91B2721B74
:1027C00090B2FFF7B3FF641CB9F1000F03DAA00069
:1027D000801D814404E0601B80000A3081446D1E2E
:1027E000AC42C0DDBDE8F08330B503460C4615466B
:1027F0005A48808849F24131884205D0574880883C
:1028000045F21031884214D15449488904F070F8D7
:10281000181204F067F8D8B204F064F84F498889B8
:1028200004F066F8201204F05DF8E0B204F05AF803
:102830008CE04A48808845F21051884220D14749AF
:10284000488904F055F8181204F04CF843494989B6
:10285000491C88B204F04CF8D8B204F043F83F4960
:10286000888904F045F8201204F03CF83B49898936
:10287000491C88B204F03CF8E0B204F033F865E09B
:102880003648808841F66311884228D133488079E0
:1028900020B932480088401EC01A83B22F494889A7
:1028A00004F026F8181204F01DF8D8B204F01AF853
:1028B000181204F017F8D8B204F014F827498889E0
:1028C00004F016F8201204F00DF8E0B204F00AF853
:1028D000201204F007F8E0B204F004F836E01F48D4
:1028E000808846F6040188421DD11C488079012861
:1028F00004D11A480088401EC01A83B2174948897B
:1029000003F0F6FF181203F0EDFFD8B203F0EAFF70
:102910001249888903F0ECFF201203F0E3FFE0B2D4
:1029200003F0E0FF12E00D488079012804D10B4844
:102930000088401EC01A83B208494889194603F02E
:10294000E7FF06498889214603F0E2FF0348008932
:1029500003490880881C058030BD0000CC0200209F
:10296000FE07006C2DE9FC4F05460E4617469846BB
:10297000DDF82C90002001902748808846F604015D
:10298000884229D124488079012825D1AB46354693
:1029900021480088C01B401E86B247461E4800885A
:1029A000A0EB0B00401E1FFA80F800201A49887126
:1029B0002A2048812B20888143463A4631462846C2
:1029C000CDF80090FFF7CEFF0120134988712B202E
:1029D00048812A2088811CE0781B401C80B201902D
:1029E000344614E02146284603F096FD03F086FFA6
:1029F0004FF0000A06E00948A0F800900AF1010033
:102A00001FFA80FA01988245F5DB601C84B24445C8
:102A1000E8DDBDE8FC8F0000CC0200200008006C5F
:102A200000B59FB00121080204F0A0F901214FF484
:102A3000B47004F0CBF90120ADF8780010208DF8C7
:102A40007B0003208DF87A001EA9FE48FEF79AFF4E
:102A50004CF23370ADF8780018208DF87B0003201D
:102A60008DF87A001EA9F848FEF78CFF4FF68070AB
:102A7000ADF8780018208DF87B0003208DF87A00DF
:102A80001EA9F248FEF77EFF41F20100ADF8780082
:102A900018208DF87B0003208DF87A001EA9EC48E1
:102AA000FEF770FF01200890002009900F200A9087
:102AB00000200B900C900D900E900190029003203E
:102AC00003900020049005900690079006200F9038
:102AD000002010901190102012900020139015905B
:102AE0001490169017904FF4805018900020199071
:102AF0004FF480401A9000201B9008A81C9001A859
:102B00001D900FA8FEF764FC01210620FEF746FC8D
:102B1000322008F031FE002003F052FBCD498880BE
:102B200008468088FF280ADB084680884FF6FF7138
:102B3000884204D0C7488088B0F5134F7ED1D32097
:102B400003F0D6FE03F032FBC249888003F02EFB6F
:102B5000C049888003F02AFBBE49888008468088E7
:102B60004FF6FF7101EA0020BA49888003F01EFB8E
:102B7000B84989880843B74988800846808849F25F
:102B8000413188425AD0BF2003F0B2FE03F00EFB61
:102B9000B049888003F00AFBAE49888003F006FB49
:102BA000AC49888003F002FBAA49888008468088E7
:102BB0004FF6FF7101EA0020A649888003F0F6FA7B
:102BC000A44989880843A34988800846808846F636
:102BD000040188427AD0D42003F08AFE03F0E6FA9A
:102BE0009C49888003F0E2FA9A49888003F0DEFA73
:102BF00098498880084680884FF6FF7101EA0020D6
:102C00009449888003F0D2FA92498988084391490F
:102C100088800846808845F21031884256D04FF4AB
:102C20005A4003F065FE03F0C1FA8A4988804FF4E8
:102C30005B4003F05DFE03F0B9FA00E046E0854931
:102C40008880084680884FF6FF7101EA002081499C
:102C500088804FF45C4003F04BFE03F0A7FA7D49F7
:102C6000898808437B49888008468088B0F5004FF2
:102C700002D145F2105088807648808845F2105184
:102C8000884223D0A12003F033FE03F08FFA71496C
:102C9000888003F08BFA6F498880084680884FF659
:102CA000FF7101EA00206B49888003F07FFA6949CF
:102CB00089880843674988800846808845F26171A1
:102CC000884203D141F66310624988806148818857
:102CD00061A007F057FC5F48808849F24131884283
:102CE0007ED1CF2003F004FE002003F0FBFDC120C5
:102CF00003F0F8FD302003F0F5FDED2003F0F8FDC2
:102D0000642003F0EFFD032003F0ECFD122003F03C
:102D1000E9FD812003F0E6FDE82003F0E9FD8520D0
:102D200003F0E0FD102003F0DDFD7A2003F0DAFD72
:102D3000CB2003F0DDFD392003F0D4FD2C2003F07F
:102D4000D1FD002003F0CEFD342003F0CBFD0220A6
:102D500003F0C8FDF72003F0CBFD202003F0C2FDF7
:102D6000EA2003F0C5FD002003F0BCFD002003F0C5
:102D7000B9FDC02003F0BCFD1B2003F0B3FDC12052
:102D800003F0B6FD012003F0ADFDC52003F0B0FD5A
:102D9000302003F0A7FD302003F0A4FDC72003F08E
:102DA000A7FDB72003F09EFD362003F0A1FD4820CB
:102DB00003F098FD3A2003F09BFD552003F092FDAF
:102DC000B12003F095FD002003F08CFD1A2003F0E4
:102DD00089FDB62003F08CFD0A2003F083FD00E09E
:102DE000AAE0A22003F07EFDF22003F081FD002086
:102DF00003F078FD262003F07BFD012003F072FD37
:102E0000E02003F075FD0F2003F06CFD2A2003F095
:102E100069FD282003F066FD082003F063FD0E2005
:102E200003F060FD082003F05DFD542003F05AFD1F
:102E3000A92003F057FD432003F054FD0A2003F0BE
:102E400051FD11E0000C0140001401400018014048
:102E500000200140CC020020204C43442049443A49
:102E600025780D0A000000000F2003F03BFD002034
:102E700003F038FD002003F035FD002003F032FDA3
:102E8000002003F02FFDE12003F032FD002003F0CD
:102E900029FD152003F026FD172003F023FD072050
:102EA00003F020FD112003F01DFD062003F01AFDA4
:102EB0002B2003F017FD562003F014FD3C2003F0F7
:102EC00011FD052003F00EFD102003F00BFD0F2077
:102ED00003F008FD3F2003F005FD3F2003F002FD55
:102EE0000F2003F0FFFC2B2003F002FD002003F075
:102EF000F9FC002003F0F6FC012003F0F3FC3F2076
:102F000003F0F0FC2A2003F0F3FC002003F0EAFCBD
:102F1000002003F0E7FC002003F0E4FCEF2003F0C6
:102F2000E1FC112003F0E4FC782008F025FC2920C6
:102F300003F0DEFC03F01DB9FE48808846F604016C
:102F400088427CD1112003F0D3FC142008F014FC3B
:102F5000D02003F0CDFC072003F0C4FC422003F096
:102F6000C1FC1D2003F0BEFCD12003F0C1FC0020F9
:102F700003F0B8FC1A2003F0B5FC092003F0B2FC02
:102F8000D22003F0B5FC012003F0ACFC222003F0BA
:102F9000A9FCC02003F0ACFC102003F0A3FC3B20F4
:102FA00003F0A0FC002003F09DFC022003F09AFC3B
:102FB000112003F097FCC52003F09AFC032003F0D6
:102FC00091FCC82003F094FC002003F08BFC25202A
:102FD00003F088FC212003F085FC052003F082FC2F
:102FE000002003F07FFC0A2003F07CFC652003F046
:102FF00079FC252003F076FC772003F073FC502049
:1030000003F070FC0F2003F06DFC002003F06AFC5D
:10301000F82003F06DFC012003F064FCFE2003F0B7
:1030200067FC002003F05EFC022003F05BFC202024
:1030300003F05EFC362003F05BFC082000E02CE08F
:1030400003F050FC3A2003F053FC552003F04AFCF7
:103050002B2003F04DFC002003F044FC002003F083
:1030600041FC012003F03EFC3F2003F03BFC2A2002
:1030700003F03EFC002003F035FC002003F032FC9E
:10308000012003F02FFCDF2003F02CFC782008F057
:1030900073FB292003F02CFC4CE7A648808845F2FE
:1030A0001031884240F07C87ED2003F021FC0120A4
:1030B00003F018FCFE2003F015FCEE2003F018FCD2
:1030C000DE2003F00FFC212003F00CFCF12003F0C4
:1030D0000FFC012003F006FCDF2003F009FC1020A8
:1030E00003F000FCC42003F003FC8F2003F0FAFB84
:1030F000C62003F0FDFB002003F0F4FBE22003F008
:10310000F1FBE22003F0EEFBE22003F0EBFBBF203B
:1031100003F0EEFBAA2003F0E5FBB02003F0E8FB90
:103120000D2003F0DFFB002003F0DCFB0D2003F09B
:10313000D9FB002003F0D6FB112003F0D3FB0020C5
:1031400003F0D0FB192003F0CDFB002003F0CAFBF5
:10315000212003F0C7FB002003F0C4FB2D2003F067
:10316000C1FB002003F0BEFB3D2003F0BBFB0020B1
:1031700003F0B8FB5D2003F0B5FB002003F0B2FBC9
:103180005D2003F0AFFB002003F0ACFBB12003F0A7
:10319000AFFB802003F0A6FB002003F0A3FB8B20F5
:1031A00003F0A0FB002003F09DFB962003F09AFBA8
:1031B000002003F097FBB22003F09AFB002003F0FD
:1031C00091FB002003F08EFB022003F08BFB00201C
:1031D00003F088FB032003F085FB002003F082FB53
:1031E000B32003F085FB002003F07CFB002003F0FC
:1031F00079FB002003F076FB002003F073FB002036
:1032000003F070FB002003F06DFB002003F06AFB6D
:10321000002003F067FB002003F064FB002003F0B4
:1032200061FB002003F05EFB002003F05BFB00204D
:1032300003F058FB002003F055FB002003F052FB85
:10324000002003F04FFB002003F04CFB002003F0B4
:1032500049FB002003F046FB002003F043FB002065
:1032600003F040FB002003F03DFB002003F03AFB9D
:10327000002003F037FBB42003F03AFB8B2003F06F
:1032800031FB002003F02EFB962003F02BFB0020E7
:1032900003F028FBA12003F025FB002003F022FB14
:1032A000B52003F025FB022003F01CFB002003F0F7
:1032B00019FB032003F016FB002003F013FB04208E
:1032C00003F010FB002003F00DFBB62003F010FB11
:1032D000002003F007FB002003F004FBB72003F0FD
:1032E00007FB002003F0FEFA002003F0FBFA3F206A
:1032F00003F0F8FA002003F0F5FA5E2003F0F2FA8A
:10330000002003F0EFFA642003F0ECFA002003F051
:10331000E9FA8C2003F0E6FA002003F0E3FAAC208F
:1033200003F0E0FA002003F0DDFADC2003F0DAFA23
:10333000002001E0CC02002003F0D4FA702003F05A
:10334000D1FA002003F0CEFA902003F0CBFA00204F
:1033500003F0C8FAEB2003F0C5FA002003F0C2FA2C
:10336000DC2003F0BFFA002003F0BCFAB82003F021
:10337000BFFA002003F0B6FA002003F0B3FA0020F1
:1033800003F0B0FA002003F0ADFA002003F0AAFA2F
:10339000002003F0A7FA002003F0A4FA002003F0B5
:1033A000A1FABA2003F0A4FA242003F09BFA00202B
:1033B00003F098FA002003F095FA002003F092FA47
:1033C000C12003F095FA202003F08CFA002003F0CE
:1033D00089FA542003F086FA002003F083FAFF20D4
:1033E00003F080FA002003F07DFAC22003F080FA97
:1033F0000A2003F077FA002003F074FA042003F0A7
:1034000071FA002003F06EFAC32003F071FA3C2039
:1034100003F068FA002003F065FA3A2003F062FA3C
:10342000002003F05FFA392003F05CFA002003F07B
:1034300059FA372003F056FA002003F053FA3C20E3
:1034400003F050FA002003F04DFA362003F04AFA58
:10345000002003F047FA322003F044FA002003F082
:1034600041FA2F2003F03EFA002003F03BFA2C2013
:1034700003F038FA002003F035FA292003F032FA7D
:10348000002003F02FFA262003F02CFA002003F08E
:1034900029FA242003F026FA002003F023FA24203E
:1034A00003F020FA002003F01DFA232003F01AFA9B
:1034B000002003F017FA3C2003F014FA002003F078
:1034C00011FA362003F00EFA002003F00BFA322036
:1034D00003F008FA002003F005FA2F2003F002FAA7
:1034E000002003F0FFF92C2003F0FCF9002003F08A
:1034F000F9F9292003F0F6F9002003F0F3F926206A
:1035000003F0F0F9002003F0EDF9242003F0EAF9CC
:10351000002003F0E7F9242003F0E4F9002003F091
:10352000E1F9232003F0DEF9002003F0DBF9C420E9
:1035300003F0DEF9622003F0D5F9002003F0D2F9A0
:10354000052003F0CFF9002003F0CCF9842003F02C
:10355000C9F9002003F0C6F9F02003F0C3F90020F8
:1035600003F0C0F9182003F0BDF9002003F0BAF908
:10357000A42003F0B7F9002003F0B4F9182003F0F9
:10358000B1F9002003F0AEF9502003F0ABF90020B0
:1035900003F0A8F90C2003F0A5F9002003F0A2F92C
:1035A000172003F09FF9002003F09CF9952003F009
:1035B00099F9002003F096F9F32003F093F9002025
:1035C00003F090F9E62003F08DF9002003F08AF96A
:1035D000C52003F08DF9322003F084F9002003F0B8
:1035E00081F9442003F07EF9002003F07BF9652087
:1035F00003F078F9002003F075F9762003F072F9F2
:10360000002003F06FF9882003F06CF9002003F02C
:1036100069F9C62003F06CF9202003F063F900205B
:1036200003F060F9172003F05DF9002003F05AF968
:10363000012003F057F9002003F054F9C72003F0EC
:1036400057F9002003F04EF9002003F04BF9002059
:1036500003F048F9002003F045F9C82003F048F9C9
:10366000002003F03FF9002003F03CF9002003F0B4
:1036700039F9002003F036F9C92003F039F90020A8
:1036800003F030F9002003F02DF9002003F02AF9AF
:10369000002003F027F9002003F024F9002003F0B4
:1036A00021F9002003F01EF9002003F01BF900208F
:1036B00003F018F9002003F015F9002003F012F9C7
:1036C000002003F00FF9002003F00CF9002003F0B4
:1036D00009F9002003F006F9002003F003F9E020C7
:1036E00003F006F9162003F0FDF8002003F0FAF8C5
:1036F0001C2003F0F7F8002003F0F4F8212003F079
:10370000F1F8002003F0EEF8362003F0EBF800208B
:1037100003F0E8F8462003F0E5F8002003F0E2F8B3
:10372000522003F0DFF8002003F0DCF8642003F0FF
:10373000D9F8002003F0D6F87A2003F0D3F800205F
:1037400003F0D0F88B2003F0CDF8002003F0CAF886
:10375000992003F0C7F8002003F0C4F8A82003F074
:10376000C1F8002003F0BEF8B92003F0BBF8002038
:1037700003F0B8F8C42003F0B5F8002003F0B2F865
:10378000CA2003F0AFF8002003F0ACF8D22003F019
:10379000A9F8002003F0A6F8D92003F0A3F8002030
:1037A00003F0A0F8E02003F09DF8002003F09AF861
:1037B000F32003F097F8002003F094F8E12003F0E1
:1037C00097F8162003F08EF8002003F08BF81C20E9
:1037D00003F088F8002003F085F8222003F082F837
:1037E000002003F07FF8362003F07CF8002003F07F
:1037F00079F8452003F076F8002003F073F85220A2
:1038000003F070F8002003F06DF8642003F06AF80C
:10381000002003F067F87A2003F064F8002003F03A
:1038200061F88B2003F05EF8002003F05BF899202C
:1038300003F058F8002003F055F8A82003F052F8E0
:10384000002003F04FF8B92003F04CF8002003F0FB
:1038500049F8C42003F046F8002003F043F8CA20DA
:1038600003F040F8002003F03DF8D22003F03AF8CE
:10387000002003F037F8D82003F034F8002003F0DC
:1038800031F8E02003F02EF8002003F02BF8F320AD
:1038900003F028F8002003F025F8E22003F028F8D0
:1038A000052003F01FF8002003F01CF80B2003F0A4
:1038B00019F8002003F016F81B2003F013F800207D
:1038C00003F010F8342003F00DF8002003F00AF89C
:1038D000442003F007F8002003F004F84F2003F021
:1038E00001F8002002F0FEFF612002F0FBFF002043
:1038F00002F0F8FF792002F0F5FF002002F0F2FF5D
:10390000882002F0EFFF002002F0ECFF972002F089
:10391000E9FF002002F0E6FFA62002F0E3FF00200E
:1039200002F0E0FFB72002F0DDFF002002F0DAFF36
:10393000C22002F0D7FF002002F0D4FFC72002F01F
:10394000D1FF002002F0CEFFD12002F0CBFF0020FB
:1039500002F0C8FFD62002F0C5FF002002F0C2FF2F
:10396000DD2002F0BFFF002002F0BCFFF32002F0D8
:10397000B9FF002002F0B6FFE32002F0B9FF0520F6
:1039800002F0B0FF002002F0ADFF0A2002F0AAFF13
:10399000002002F0A7FF1C2002F0A4FF002002F08C
:1039A000A1FF332002F09EFF002002F09BFF442085
:1039B00002F098FF002002F095FF502002F092FFE5
:1039C000002002F08FFF622002F08CFF002002F046
:1039D00089FF782002F086FF002002F083FF882014
:1039E00002F080FF002002F07DFF972002F07AFFB6
:1039F000002002F077FFA62002F074FF002002F002
:103A000071FFB72002F06EFF002002F06BFFC220B2
:103A100002F068FF002002F065FFC72002F062FF9D
:103A2000002002F05FFFD12002F05CFF002002F0D6
:103A300059FFD52002F056FF002002F053FFDD2091
:103A400002F050FF002002F04DFFF32002F04AFF89
:103A5000002002F047FFE42002F04AFF012002F0BC
:103A600041FF002002F03EFF012002F03BFF00205A
:103A700002F038FF022002F035FF002002F032FF92
:103A80002A2002F02FFF002002F02CFF3C2002F041
:103A900029FF002002F026FF4B2002F023FF002028
:103AA00002F020FF5D2002F01DFF002002F01AFF4F
:103AB000742002F017FF002002F014FF842002F0AF
:103AC00011FF002002F00EFF932002F00BFF0020F8
:103AD00002F008FFA22002F005FF002002F002FF22
:103AE000B32002F0FFFE002002F0FCFEBE2002F038
:103AF000F9FE002002F0F6FEC42002F0F3FE0020E2
:103B000002F0F0FECD2002F0EDFE002002F0EAFE11
:103B1000D32002F0E7FE002002F0E4FEDD2002F0F8
:103B2000E1FE002002F0DEFEF32002F0DBFE0020CA
:103B300002F0D8FEE52002F0DBFE002002F0D2FE0B
:103B4000002002F0CFFE002002F0CCFE002002F0A8
:103B5000C9FE022002F0C6FE002002F0C3FE2920AA
:103B600002F0C0FE002002F0BDFE3C2002F0BAFED2
:103B7000002002F0B7FE4B2002F0B4FE002002F05D
:103B8000B1FE5D2002F0AEFE002002F0ABFE74201C
:103B900002F0A8FE002002F0A5FE842002F0A2FEA2
:103BA000002002F09FFE932002F09CFE002002F015
:103BB00099FEA22002F096FE002002F093FEB320B0
:103BC00002F090FE002002F08DFEBE2002F08AFE80
:103BD000002002F087FEC42002F084FE002002F0E4
:103BE00081FECD2002F07EFE002002F07BFED3207D
:103BF00002F078FE002002F075FEDC2002F072FE7A
:103C0000002002F06FFEF32002F06CFE002002F0B4
:103C100069FEE62002F06CFE112002F063FE002037
:103C200002F060FE342002F05DFE002002F05AFE39
:103C3000562002F057FE002002F054FE762002F0DB
:103C400051FE002002F04EFE772002F04BFE0020D5
:103C500002F048FE662002F045FE002002F042FE1F
:103C6000882002F03FFE002002F03CFE992002F086
:103C700039FE002002F036FEBB2002F033FE0020A9
:103C800002F030FE992002F02DFE002002F02AFE04
:103C9000662002F027FE002002F024FE552002F0EC
:103CA00021FE002002F01EFE552002F01BFE002027
:103CB00002F018FE452002F015FE002002F012FE70
:103CC000432002F00FFE002002F00CFE442002F020
:103CD00009FE002002F006FEE72002F009FE322075
:103CE00002F000FE002002F0FDFD552002F0FAFD7A
:103CF000002002F0F7FD762002F0F4FD002002F033
:103D0000F1FD662002F0EEFD002002F0EBFD6720E1
:103D100002F0E8FD002002F0E5FD672002F0E2FD80
:103D2000002002F0DFFD872002F0DCFD002002F021
:103D3000D9FD992002F0D6FD002002F0D3FDBB2072
:103D400002F0D0FD002002F0CDFD992002F0CAFD66
:103D5000002002F0C7FD772002F0C4FD002002F031
:103D6000C1FD442002F0BEFD002002F0BBFD562044
:103D700002F0B8FD002002F0B5FD232002F0B2FDF4
:103D8000002002F0AFFD332002F0ACFD002002F075
:103D9000A9FD452002F0A6FD002002F0A3FDE820C9
:103DA00002F0A6FD002002F09DFD002002F09AFD29
:103DB000992002F097FD002002F094FD872002F088
:103DC00091FD002002F08EFD882002F08BFD002086
:103DD00002F088FD772002F085FD002002F082FDD0
:103DE000662002F07FFD002002F07CFD882002F0BA
:103DF00079FD002002F076FDAA2002F073FD00207C
:103E000002F070FDBB2002F06DFD002002F06AFDA3
:103E1000992002F067FD002002F064FD662002F0A8
:103E200061FD002002F05EFD552002F05BFD0020E8
:103E300002F058FD552002F055FD002002F052FD21
:103E4000442002F04FFD002002F04CFD442002F01F
:103E500049FD002002F046FD552002F043FD002000
:103E600002F040FDE92002F043FDAA2002F03AFDF5
:103E7000002002F037FD002002F034FD002002F0A7
:103E800031FD002002F034FDAA2002F02BFDCF20EE
:103E900002F02EFD002002F025FD002002F022FDA0
:103EA000002002F01FFD002002F01CFD002002F0A7
:103EB00019FD002002F016FD002002F013FD002085
:103EC00002F010FD002002F00DFD002002F00AFDBE
:103ED000002002F007FD002002F004FD002002F0A7
:103EE00001FD002002F0FEFC002002F0FBFC00209F
:103EF00002F0F8FC002002F0F5FCF02002F0F8FCE3
:103F0000002002F0EFFC502002F0ECFC002002F058
:103F1000E9FC002002F0E6FC002002F0E3FCF320C4
:103F200002F0E6FC002002F0DDFCF92002F0E0FCEB
:103F3000062002F0D7FC102002F0D4FC292002F069
:103F4000D1FC002002F0CEFC3A2002F0D1FC55203A
:103F500002F0C8FC112002F0CBFC642007F00CFC3E
:103F6000292002F0C5FC352002F0C2FC002002F03E
:103F7000B9FC512002F0BCFCFF2002F0B3FC53203E
:103F800002F0B6FC2C2002F0ADFC552002F0B0FC93
:103F9000822002F0A7FC2C2002F0AAFC02F0E9B873
:103FA000FE48808845F2105188427DD155214FF45A
:103FB000704002F0ADFCAA214FF2010002F0A8FC13
:103FC00052214FF2020002F0A3FC08214FF203003D
:103FD00002F09EFC01214FF2040002F099FC0D2139
:103FE0004FF4304002F094FC0D214BF2010002F03E
:103FF0008FFC0D214BF2020002F08AFC34214FF4B9
:10400000364002F085FC34214BF2016002F080FC66
:1040100034214BF2026002F07BFC0D214FF4314061
:1040200002F076FC0D214BF2011002F071FC0D2123
:104030004BF2021002F06CFC34214FF4374002F0D6
:1040400067FC34214BF2017002F062FC34214BF228
:10405000027002F05DFC00214FF4324002F058FC87
:1040600000214BF2012002F053FC00214BF2022010
:1040700002F04EFC24214FF4384002F049FC242188
:104080004BF6010002F044FC24214BF6020002F042
:104090003FFC01214FF43F4002F03AFC0F214FF466
:1040A000334002F035FC00E0FDE30F214BF201301C
:1040B00002F02EFC0F214BF2023002F029FC3421D9
:1040C0004FF4394002F024FC34214BF6011002F089
:1040D0001FFC34214BF6021002F01AFC08214FF4A9
:1040E000354002F015FC08214BF2015002F010FCA3
:1040F00008214BF2025002F00BFC03214FF4424026
:1041000002F006FC24214FF43A4002F001FC242185
:104110004BF6012002F0FCFB24214BF6022002F0BA
:10412000F7FB00214FF43C4002F0F2FB78214BF604
:10413000014002F0EDFB00214BF6024002F0E8FBEB
:1041400000214FF43D4002F0E3FB78214BF6015093
:1041500002F0DEFB00214BF6025002F0D9FB0021F9
:104160004FF43E4002F0D4FB64214BF6016002F0B4
:10417000CFFB00214FF4514002F0CAFB33214DF236
:10418000011002F0C5FB00214DF2021002F0C0FB4D
:1041900034214DF2031002F0BBFB00214DF204105C
:1041A00002F0B6FB3A214DF2051002F0B1FB0021FE
:1041B0004DF2061002F0ACFB4A214DF2071002F05E
:1041C000A7FB00214DF2081002F0A2FB5C214DF28A
:1041D000091002F09DFB00214DF20A1002F098FB3D
:1041E00081214DF20B1002F093FB00214DF20C10D7
:1041F00002F08EFBA6214DF20D1002F089FB00218A
:104200004DF20E1002F084FBE5214DF20F1002F08A
:104210007FFB01214DF2101002F07AFB13214DF2C9
:10422000111002F075FB01214DF2121002F070FB2B
:1042300054214DF2131002F06BFB01214DF21410CA
:1042400002F066FB82214DF2151002F061FB0121A4
:104250004DF2161002F05CFBCA214DF2171002F06D
:1042600057FB02214DF2181002F052FB00214DF2D3
:10427000191002F04DFB02214DF21A1002F048FB1A
:1042800001214DF21B1002F043FB02214DF21C10E4
:1042900002F03EFB34214DF21D1002F039FB0221E9
:1042A0004DF21E1002F034FB67214DF21F1002F098
:1042B0002FFB02214DF2201002F02AFB84214DF247
:1042C000211002F025FB02214DF2221002F020FB0A
:1042D000A4214DF2231002F01BFB02214DF2241009
:1042E00002F016FBB7214DF2251002F011FB02215E
:1042F0004DF2261002F00CFBCF214DF2271002F0F8
:1043000007FB02214DF2281002F002FBDE214DF2E4
:10431000291002F0FDFA02214DF22A1002F0F8FAFB
:10432000F2214DF22B1002F0F3FA02214DF22C1083
:1043300002F0EEFAFE214DF22D1002F0E9FA03210F
:104340004DF22E1002F0E4FA10214DF22F1002F07F
:10435000DFFA03214DF2301002F0DAFA33214DF288
:10436000311002F0D5FA03214DF2321002F0D0FAEA
:104370006D214DF2331002F0CBFA00214FF4524080
:1043800002F0C6FA33214DF2012002F0C1FA0021F9
:104390004DF2022002F0BCFA342101E0CC020020F0
:1043A0004DF2032002F0B4FA00214DF2042002F095
:1043B000AFFA3A214DF2052002F0AAFA00214DF29F
:1043C000062002F0A5FA4A214DF2072002F0A0FAD9
:1043D00000214DF2082002F09BFA5C214DF20920E9
:1043E00002F096FA00214DF20A2002F091FA8121A2
:1043F0004DF20B2002F08CFA00214DF20C2002F05D
:1044000087FAA6214DF20D2002F082FA00214DF22A
:104410000E2002F07DFAE5214DF20F2002F078FA2D
:1044200001214DF2102002F073FA13214DF21120F8
:1044300002F06EFA01214DF2122002F069FA5421C5
:104440004DF2132002F064FA01214DF2142002F023
:104450005FFA82214DF2152002F05AFA01214DF245
:10446000162002F055FACA214DF2172002F050FA38
:1044700002214DF2182002F04BFA00214DF21920D2
:1044800002F046FA02214DF21A2002F041FA01210F
:104490004DF21B2002F03CFA02214DF21C2002F0EA
:1044A00037FA34214DF21D2002F032FA02214DF28A
:1044B0001E2002F02DFA67214DF21F2002F028FA8B
:1044C00002214DF2202002F023FA84214DF2212016
:1044D00002F01EFA02214DF2222002F019FAA42164
:1044E0004DF2232002F014FA02214DF2242002F0B2
:1044F0000FFAB7214DF2252002F00AFA02214DF2FF
:10450000262002F005FACF214DF2272002F000FA12
:1045100002214DF2282002F0FBF9DE214DF2292084
:1045200002F0F6F902214DF22A2002F0F1F9F2210F
:104530004DF22B2002F0ECF902214DF22C2002F07A
:10454000E7F9FE214DF22D2002F0E2F903214DF2B0
:104550002E2002F0DDF910214DF22F2002F0D8F9C3
:1045600003214DF2302002F0D3F933214DF23120F6
:1045700002F0CEF903214DF2322002F0C9F96D218B
:104580004DF2332002F0C4F900214FF4534002F001
:10459000BFF933214DF2013002F0BAF900214DF29A
:1045A000023002F0B5F934214DF2033002F0B0F9D7
:1045B00000214DF2043002F0ABF93A214DF2053002
:1045C00002F0A6F900214DF2063002F0A1F94A21CD
:1045D0004DF2073002F09CF900214DF2083002F054
:1045E00097F95C214DF2093002F092F900214DF269
:1045F0000A3002F08DF981214DF20B3002F088F97A
:1046000000214DF20C3002F083F9A6214DF20D305D
:1046100002F07EF900214DF20E3002F079F9E52129
:104620004DF20F3002F074F901214DF2103002F01A
:104630006FF913214DF2113002F06AF901214DF2A8
:10464000123002F065F954214DF2133002F060F996
:1046500001214DF2143002F05BF982214DF2153048
:1046600002F056F901214DF2163002F051F9CA213B
:104670004DF2173002F04CF902214DF2183002F0E1
:1046800047F900214DF2193002F042F902214DF2B2
:104690001A3002F03DF901214DF21B3002F038F9D9
:1046A00002214DF21C3002F033F934214DF21D305D
:1046B00002F02EF902214DF21E3002F029F9672195
:1046C0004DF21F3002F024F902214DF2203002F0A9
:1046D0001FF984214DF2213002F01AF902214DF226
:1046E000223002F015F9A4214DF2233002F010F926
:1046F00002214DF2243002F00BF9B7214DF22530A2
:1047000002F006F902214DF2263002F001F9CF2124
:104710004DF2273002F0FCF802214DF2283002F071
:10472000F7F8DE214DF2293002F0F2F802214DF2C5
:104730002A3002F0EDF8F2214DF22B3002F0E8F8C9
:1047400002214DF22C3002F0E3F8FE214DF22D3023
:1047500002F0DEF803214DF22E3002F0D9F81021DC
:104760004DF22F3002F0D4F803214DF2303002F038
:10477000CFF833214DF2313002F0CAF803214DF267
:10478000323002F0C5F86D214DF2333002F0C0F83E
:1047900000214FF4544002F0BBF833214DF20140A8
:1047A00002F0B6F800214DF2024002F0B1F83421D7
:1047B0004DF2034002F0ACF800214DF2044002F04B
:1047C000A7F83A214DF2054002F0A2F800214DF27F
:1047D000064002F09DF84A214DF2074002F098F899
:1047E00000214DF2084002F093F85C214DF209409F
:1047F00002F08EF800214DF20A4002F089F8812182
:104800004DF20B4002F084F800214DF20C4002F012
:104810007FF8A6214DF20D4002F07AF800214DF20A
:104820000E4002F075F8E5214DF20F4002F070F8ED
:1048300001214DF2104002F06BF813214DF21140AE
:1048400002F066F801214DF2124002F061F85421A5
:104850004DF2134002F05CF801214DF2144002F0D9
:1048600057F882214DF2154002F052F801214DF225
:10487000164002F04DF8CA214DF2174002F048F8F8
:1048800002214DF2184002F043F800214DF2194088
:1048900002F03EF802214DF21A4002F039F80121EF
:1048A0004DF21B4000E006E302F032F802214DF227
:1048B0001C4002F02DF834214DF21D4002F028F882
:1048C00002214DF21E4002F023F867214DF21F40F5
:1048D00002F01EF802214DF2204002F019F8842166
:1048E0004DF2214002F014F802214DF2224002F074
:1048F0000FF8A4214DF2234002F00AF802214DF2F4
:10490000244002F005F8B7214DF2254002F000F8EE
:1049100002214DF2264001F0FBFFCF214DF227404E
:1049200001F0F6FF02214DF2284001F0F1FFDE21F7
:104930004DF2294001F0ECFF02214DF22A4001F036
:10494000E7FFF2214DF22B4001F0E2FF02214DF290
:104950002C4001F0DDFFFE214DF22D4001F0D8FF8B
:1049600003214DF22E4001F0D3FF10214DF22F40D4
:1049700001F0CEFF03214DF2304001F0C9FF332199
:104980004DF2314001F0C4FF03214DF2324001F0FD
:10499000BFFF6D214DF2334001F0BAFF00214FF40B
:1049A000554001F0B5FF33214DF2015001F0B0FF49
:1049B00000214DF2025001F0ABFF34214DF20350C3
:1049C00001F0A6FF00214DF2045001F0A1FF3A21B1
:1049D0004DF2055001F09CFF00214DF2065001F010
:1049E00097FF4A214DF2075001F092FF00214DF24E
:1049F000085001F08DFF5C214DF2095001F088FF55
:104A000000214DF20A5001F083FF81214DF20B503D
:104A100001F07EFF00214DF20C5001F079FFA6213C
:104A20004DF20D5001F074FF00214DF20E5001F0D7
:104A30006FFFE5214DF20F5001F06AFF01214DF2A9
:104A4000105001F065FF13214DF2115001F060FF8D
:104A500001214DF2125001F05BFF54214DF2135031
:104A600001F056FF01214DF2145001F051FF822157
:104A70004DF2155001F04CFF01214DF2165001F09E
:104A800047FFCA214DF2175001F042FF02214DF2BB
:104A9000185001F03DFF00214DF2195001F038FF90
:104AA00002214DF21A5001F033FF01214DF21B504B
:104AB00001F02EFF02214DF21C5001F029FF34219C
:104AC0004DF21D5001F024FF02214DF21E5001F065
:104AD0001FFF67214DF21F5001F01AFF02214DF216
:104AE000205001F015FF84214DF2215001F010FFFC
:104AF00002214DF2225001F00BFFA4214DF2235070
:104B000001F006FF02214DF2245001F001FFB72110
:104B10004DF2255001F0FCFE02214DF2265001F02D
:104B2000F7FECF214DF2275001F0F2FE02214DF2A7
:104B3000285001F0EDFEDE214DF2295001F0E8FE93
:104B400002214DF22A5001F0E3FEF2214DF22B50EA
:104B500001F0DEFE02214DF22C5001F0D9FEFE21C3
:104B60004DF22D5001F0D4FE03214DF22E5001F0F4
:104B7000CFFE10214DF22F5001F0CAFE03214DF25D
:104B8000305001F0C5FE33214DF2315001F0C0FE2E
:104B900003214DF2325001F0BBFE6D214DF2335036
:104BA00001F0B6FE00214FF4564001F0B1FE332172
:104BB0004DF2016001F0ACFE00214DF2026001F007
:104BC000A7FE34214DF2036001F0A2FE00214DF258
:104BD000046001F09DFE3A214DF2056001F098FE5F
:104BE00000214DF2066001F093FE4A214DF207606C
:104BF00001F08EFE00214DF2086001F089FE5C217B
:104C00004DF2096001F084FE00214DF20A6001F0CE
:104C10007FFE81214DF20B6001F07AFE00214DF202
:104C20000C6001F075FEA6214DF20D6001F070FEE2
:104C300000214DF20E6001F06BFEE5214DF20F6098
:104C400001F066FE01214DF2106001F061FE1321BA
:104C50004DF2116001F05CFE01214DF2126001F095
:104C600057FE54214DF2136001F052FE01214DF226
:104C7000146001F04DFE82214DF2156001F048FEF6
:104C800001214DF2166001F043FECA214DF217607A
:104C900001F03EFE02214DF2186001F039FE0021C4
:104CA0004DF2196001F034FE02214DF21A6001F05C
:104CB0002FFE01214DF21B6001F02AFE02214DF270
:104CC0001C6001F025FE34214DF21D6001F020FE34
:104CD00002214DF21E6001F01BFE67214DF21F60A4
:104CE00001F016FE02214DF2206001F011FE842138
:104CF0004DF2216001F00CFE02214DF2226001F024
:104D000007FEA4214DF2236001F002FE02214DF2C4
:104D1000246001F0FDFDB7214DF2256001F0F8FDA2
:104D200002214DF2266001F0F3FDCF214DF2276004
:104D300001F0EEFD02214DF2286001F0E9FDDE21D7
:104D40004DF2296001F0E4FD02214DF22A6001F0EC
:104D5000DFFDF2214DF22B6001F0DAFD02214DF270
:104D60002C6001F0D5FDFE214DF22D6001F0D0FD4B
:104D700003214DF22E6001F0CBFD10214DF22F608A
:104D800001F0C6FD03214DF2306001F0C1FD332179
:104D90004DF2316001F0BCFD03214DF2326001F0B3
:104DA000B7FD6D214DF2336001F0B2FD55214FF496
:104DB000704001F0ADFDAA214FF2010001F0A8FD05
:104DC00052214FF2020001F0A3FD08214FF203002F
:104DD00001F09EFD00214FF2040001F099FDCC216D
:104DE0004FF4314001F094FD00214BF2011001F02D
:104DF0008FFD05214FF4364001F08AFD70214FF4FC
:104E0000374001F085FD70214BF2017001F080FD0B
:104E100001214FF4384001F07BFD03214BF60100E6
:104E200001F076FD03214BF6020001F071FD032134
:104E30004BF6030001F06CFD02214FF43C4001F001
:104E400067FD00214BF6014001F062FD00214BF6A9
:104E5000024001F05DFDD0214FF4494001F058FDC2
:104E600002214CF6011001F053FD50214CF60210C6
:104E700001F04EFD50214CF6031001F049FD502188
:104E80004CF6041001F044FD00214FF4545001F0A1
:104E90003FFD55214FF4685001F03AFD4FF4885022
:104EA00001F026FD782006F08DFC4FF4245001F02F
:104EB0001FFD01F05EB9FE48808849F22531884225
:104EC0007ED147F6F001E52001F022FD4FF480711C
:104ED000012001F01DFD4FF4E061022001F018FDFA
:104EE00041F23001032001F013FD0021042001F004
:104EF0000FFD40F20221082001F00AFD00210920E7
:104F000001F006FD00210A2001F002FD00210C2025
:104F100001F0FEFC00210D2001F0FAFC00210F2021
:104F200001F0F6FC0021102001F0F2FC0721112015
:104F300001F0EEFC0021122001F0EAFC0021132018
:104F400001F0E6FC0021072001F0E2FC41F2906153
:104F5000102001F0DDFC40F22721112001F0D8FCE7
:104F60009D21122001F0D4FC4FF4C851132001F010
:104F7000CFFC2521292001F0CBFC0D212B2001F0B5
:104F8000C7FC0721302001F0C3FC40F2033131207F
:104F900001F0BEFC0321322001F0BAFC40F20621F0
:104FA000352001F0B5FC0821362001F0B1FC40F2BB
:104FB0000641372001F0ACFC4FF44171382000E08D
:104FC00057E001F0A5FC0721392001F0A1FC40F2D7
:104FD00002613C2001F09CFC08213D2001F098FC7E
:104FE0000021502001F094FCEF21512001F090FCB1
:104FF0000021522001F08CFC40F23F11532001F0BF
:1050000087FC4FF42741602001F082FC01216120E0
:1050100001F07EFC00216A2001F07AFC0021802052
:1050200001F076FC0021812001F072FC0021822039
:1050300001F06EFC0021832001F06AFC0021842035
:1050400001F066FC0021852001F062FC1021902017
:1050500001F05EFC4FF4C061922001F059FC40F277
:105060003311072001F054FC2221002001F050FCF4
:105070001FE78F48808849F2283188427ED141F26B
:105080008F01EC2001F044FC41F23421EF2001F0CB
:105090003FFC4FF48071012001F03AFC4FF4E061D5
:1050A000022001F035FC41F23001032001F030FC18
:1050B0000021042001F02CFC40F20221082001F024
:1050C00027FC0021092001F023FC00210A2001F027
:1050D0001FFC01210C2001F01BFC00210D2001F020
:1050E00017FC00210F2001F013FC0021102001F01B
:1050F0000FFC0721112001F00BFC0021122001F010
:1051000007FC0021132001F003FC0121072001F01E
:10511000FFFB322006F030FB41F29041102001F0FD
:10512000F7FB40F22721112001F0F2FB322006F0BC
:1051300023FB8A21122001F0EBFB322006F01CFB3E
:105140004FF4D051132001F0E3FB0621292001F098
:10515000DFFB0D212B2001F0DBFB322006F00CFBE6
:105160000021202001F0D4FB0021212001F0D0FB00
:10517000322006F001FB0021302000E074E001F055
:10518000C7FB40F20461312001F0C2FB40F205315F
:10519000322001F0BDFB0021352001F0B9FB40F6C3
:1051A0000941362001F0B4FB4FF40171372001F0C2
:1051B000AFFB40F20131382001F0AAFB40F2077149
:1051C000392001F0A5FB00213C2001F0A1FB40F6B5
:1051D0000A213D2001F09CFB322006F0CDFA00218F
:1051E000502001F095FBEF21512001F091FB0021AF
:1051F000522001F08DFB40F23F11532001F088FB5B
:105200004FF42741602001F083FB0121612001F070
:105210007FFB00216A2001F07BFB0021802001F050
:1052200077FB0021812001F073FB0021822001F037
:105230006FFB0021832001F06BFB0021842001F033
:1052400067FB0021852001F063FB1021902001F015
:105250005FFB4FF4C061922001F05AFB40F2331122
:10526000072001F055FB24E61148808849F22031DF
:1052700088427DD10021084601F04AFB4FF480713D
:10528000012001F045FB4FF4E061022001F040FBFA
:1052900041F23001032001F03BFB0021042001F02A
:1052A00037FB40F20221082001F032FB002101E02F
:1052B000CC020020092001F02BFB00210A2001F084
:1052C00027FB01210C2001F023FB00210D2001F020
:1052D0001FFB00210F2001F01BFB322006F04CFACF
:1052E00040F20111072001F013FB322006F044FACE
:1052F0004FF48651102001F00BFB0721112001F023
:1053000007FB4FF48871122001F002FB4FF430616B
:10531000132001F0FDFA0021292001F0F9FA44F2EE
:1053200010012B2001F0F4FA0021502001F0F0FAD6
:10533000EF21512001F0ECFA0021522001F0E8FAAF
:1053400040F23F11532001F0E3FA4FF41C5160206A
:1053500001F0DEFA0121612001F0DAFA00216A2071
:1053600001F0D6FA0021802001F0D2FA002100E0FD
:1053700031E0812001F0CCFA0021822001F0C8FA4E
:105380000021832001F0C4FA0021842001F0C0FA3A
:105390000021852001F0BCFA1021902001F0B8FA1C
:1053A0000021922001F0B4FA0121932001F0B0FA1B
:1053B0004FF48871952001F0ABFA0021972001F09D
:1053C000A7FA0021982001F0A3FA40F273110720F8
:1053D00001F09EFA6DE5FE48808849F2313188423D
:1053E0007DD141F21401E72001F092FA4FF480716F
:1053F000012001F08DFA4FF40071022001F088FACB
:1054000041F23801032001F083FA40F20221082022
:1054100001F07EFA0021092001F07AFA00210A2029
:1054200001F076FA00210C2001F072FA00210D2023
:1054300001F06EFA00210F2001F06AFA002110201D
:1054400001F066FA0721112001F062FA0021122012
:1054500001F05EFA0021132001F05AFAC82006F08C
:105460008BF941F29061102001F052FA40F22721AD
:10547000112001F04DFA322006F07EF90C211220A5
:1054800001F046FA322006F077F94FF4006113205C
:1054900001F03EFA1121292001F03AFA0B212B20CC
:1054A00001F036FA322006F067F90021202001F0E1
:1054B0002FFA40F23F11212001F02AFA002130207A
:1054C00001F026FA4FF48371312001F021FA002116
:1054D000322001F01DFA4FF40171352000E064E044
:1054E00001F016FA41F20A61362001F011FA40F299
:1054F0000771372001F00CFA4FF48371382001F066
:1055000007FA40F20771392001F002FA40F2024135
:105510003C2001F0FDF940F60F413D2001F0F8F983
:105520000021502001F0F4F9EF21512001F0F0F9B1
:105530000021522001F0ECF940F23F11532001F01C
:10554000E7F94FF41C51602001F0E2F901216120DC
:1055500001F0DEF900216A2001F0DAF90021802053
:1055600001F0D6F90021812001F0D2F9002182203A
:1055700001F0CEF90021832001F0CAF90021842036
:1055800001F0C6F90021852001F0C2F91021902018
:1055900001F0BEF94FF4C061922001F0B9F940F278
:1055A0003311072001F0B4F983E48948808845F27B
:1055B000084188427ED14FF48071012001F0A8F9A2
:1055C0004FF4E061022001F0A3F941F23001032021
:1055D00001F09EF90021042001F09AF940F2072120
:1055E000082001F095F90021092001F091F900212E
:1055F0000A2001F08DF900210C2001F089F9002129
:105600000D2001F085F900210F2001F081F914200F
:1056100006F0B2F841F2B061102001F079F90121F1
:10562000112001F075F90121172001F071F94FF4F3
:105630009C71122001F06CF94FF40061132001F00D
:1056400067F90921292001F063F909212A2001F0D5
:105650005FF90021A42001F05BF90021502001F046
:1056600057F9EF21512001F053F90021522001F0A8
:105670004FF940F23F11532001F04AF94FF41C5109
:10568000602001F045F90121612001F041F900217C
:105690006A2001F03DF90021802001F039F9002154
:1056A000812001F035F90021822001F031F900213B
:1056B000832000E023E001F02BF90021842001F099
:1056C00027F90021852001F023F91321902001F012
:1056D0001FF90021922001F01BF90321932001F012
:1056E00017F94FF48871952001F012F940F2731107
:1056F000072001F00DF9322006F03EF8B8E43448F6
:10570000808841F2055188427ED10021072001F0B6
:10571000FFF8322006F030F84FF48E71122001F0BD
:10572000F7F80121A42001F0F3F80F21082001F07F
:10573000EFF808210A2001F0EBF808210D2001F014
:10574000E7F840F20771302001F0E2F8072131203C
:1057500001F0DEF840F20361322001F0D9F84FF495
:10576000E061332001F0D4F840F20221342001F04E
:10577000CFF80221352001F0CBF841F60F71362029
:1057800001F0C6F840F20771372001F0C1F800219E
:10579000382001F0BDF80021392001F0B9F840F2BD
:1057A00007713A2001F0B4F800213B2001F0B0F875
:1057B00007213C2001F0ACF800213D2001F0A8F8C1
:1057C000322005F0D9FF0121072001F0A1F801E006
:1057D000CC0200200121172001F09AF8322005F0B8
:1057E000CBFF4FF4BD51102001F092F840F2172189
:1057F000112001F08DF84FF48F71122001F088F81C
:105800004FF47061132000E097E001F081F800216F
:105810002A2001F07DF80A21292001F079F84FF4BF
:105820009F71122001F074F80021502001F070F8EF
:10583000EF21512001F06CF80021522001F068F8AE
:1058400040F23F11532001F063F84FF41C516020E7
:1058500001F05EF80121612001F05AF800216A2070
:1058600001F056F80021802001F052F8002181203B
:1058700001F04EF80021822001F04AF80021832037
:1058800001F046F80021842001F042F80021852033
:1058900001F03EF81321902001F03AF84FF44071E6
:1058A000922001F035F80521932001F031F8002114
:1058B000952001F02DF80021972001F029F8002112
:1058C000982001F025F84FF48071012001F020F8B4
:1058D0004FF4E061022001F01BF841F2380103208F
:1058E00001F016F80021042001F012F800210C202C
:1058F00001F00EF800210F2001F00AF8002120200D
:1059000001F006F80021212001F002F821210720F2
:1059100000F0FEFF142005F02FFF6121072000F0AA
:10592000F7FF142005F028FF40F27311072000F064
:10593000EFFF142005F020FF95E4FE4880884BF22D
:10594000055188427ED10021084600F0E1FF002188
:10595000084600F0DDFF0021084600F0D9FF0021D5
:10596000084600F0D5FF0121A42000F0D1FF14204B
:1059700005F002FF4FF41C51602000F0C9FF40F217
:105980000221082000F0C4FF4FF40571302000F020
:10599000BFFF43F21571312000F0BAFF40F20461FD
:1059A000322000F0B5FF40F61661332000F0B0FF62
:1059B00042F21121342000F0ABFF4FF4A851352002
:1059C00000F0A6FF48F20751362000F0A1FF41F297
:1059D0000741372000F09CFF41F20341382000F0DE
:1059E00097FF2021392000F093FF1A21902000F02A
:1059F0008FFF0021102000F08BFF0721112000F005
:105A000087FF0021122000F083FF0021132000F007
:105A10007FFF142005F0B0FE4FF4E661102000F087
:105A200077FF40F23711112000F072FF142005F0CB
:105A3000A3FE4FF4DC71122000F06AFF142005F081
:105A40009BFE00E083E04FF47061132000F060FFE4
:105A500080212A2000F05CFF4821292000F058FF17
:105A6000142005F089FE4FF48071012000F050FFF2
:105A70004FF4E061022000F04BFF41F238010320B7
:105A800000F046FF40F20221082000F041FF002113
:105A90000A2000F03DFF00210C2000F039FF00211A
:105AA0000D2000F035FF30210E2000F031FF0021E5
:105AB000502000F02DFFEF21512000F029FF0021A0
:105AC000522000F025FF40F23F11532000F020FF4C
:105AD0004FF41C51602000F01BFF0121612000F0F9
